{
  "_format": "hh-sol-artifact-1",
  "contractName": "DigitalEscrow",
  "sourceName": "contracts/escrow/DigitalEscrow.sol",
  "abi": [
    {
      "inputs": [],
      "stateMutability": "nonpayable",
      "type": "constructor"
    },
    {
      "inputs": [
        {
          "internalType": "address",
          "name": "target",
          "type": "address"
        }
      ],
      "name": "AddressEmptyCode",
      "type": "error"
    },
    {
      "inputs": [],
      "name": "DisputeAlreadyInitiated",
      "type": "error"
    },
    {
      "inputs": [
        {
          "internalType": "address",
          "name": "implementation",
          "type": "address"
        }
      ],
      "name": "ERC1967InvalidImplementation",
      "type": "error"
    },
    {
      "inputs": [],
      "name": "ERC1967NonPayable",
      "type": "error"
    },
    {
      "inputs": [],
      "name": "EnforcedPause",
      "type": "error"
    },
    {
      "inputs": [],
      "name": "ExpectedPause",
      "type": "error"
    },
    {
      "inputs": [],
      "name": "FailedCall",
      "type": "error"
    },
    {
      "inputs": [
        {
          "internalType": "address",
          "name": "addr",
          "type": "address"
        }
      ],
      "name": "InvalidAddress",
      "type": "error"
    },
    {
      "inputs": [
        {
          "internalType": "uint256",
          "name": "amount",
          "type": "uint256"
        }
      ],
      "name": "InvalidAmount",
      "type": "error"
    },
    {
      "inputs": [],
      "name": "InvalidInitialization",
      "type": "error"
    },
    {
      "inputs": [
        {
          "internalType": "enum IDigitalEscrow.Status",
          "name": "current",
          "type": "uint8"
        },
        {
          "internalType": "enum IDigitalEscrow.Status",
          "name": "required",
          "type": "uint8"
        }
      ],
      "name": "InvalidStatus",
      "type": "error"
    },
    {
      "inputs": [],
      "name": "NotInitializing",
      "type": "error"
    },
    {
      "inputs": [
        {
          "internalType": "address",
          "name": "owner",
          "type": "address"
        }
      ],
      "name": "OwnableInvalidOwner",
      "type": "error"
    },
    {
      "inputs": [
        {
          "internalType": "address",
          "name": "account",
          "type": "address"
        }
      ],
      "name": "OwnableUnauthorizedAccount",
      "type": "error"
    },
    {
      "inputs": [],
      "name": "ReentrancyGuardReentrantCall",
      "type": "error"
    },
    {
      "inputs": [
        {
          "internalType": "uint256",
          "name": "length",
          "type": "uint256"
        }
      ],
      "name": "StringTooLong",
      "type": "error"
    },
    {
      "inputs": [
        {
          "internalType": "uint256",
          "name": "timestamp",
          "type": "uint256"
        }
      ],
      "name": "TransactionExpired",
      "type": "error"
    },
    {
      "inputs": [
        {
          "internalType": "uint256",
          "name": "transactionId",
          "type": "uint256"
        }
      ],
      "name": "TransactionNotFound",
      "type": "error"
    },
    {
      "inputs": [],
      "name": "TransferFailed",
      "type": "error"
    },
    {
      "inputs": [],
      "name": "UUPSUnauthorizedCallContext",
      "type": "error"
    },
    {
      "inputs": [
        {
          "internalType": "bytes32",
          "name": "slot",
          "type": "bytes32"
        }
      ],
      "name": "UUPSUnsupportedProxiableUUID",
      "type": "error"
    },
    {
      "inputs": [
        {
          "internalType": "address",
          "name": "caller",
          "type": "address"
        }
      ],
      "name": "UnauthorizedAccess",
      "type": "error"
    },
    {
      "anonymous": false,
      "inputs": [
        {
          "indexed": true,
          "internalType": "uint256",
          "name": "transactionId",
          "type": "uint256"
        }
      ],
      "name": "DisputeInitiated",
      "type": "event"
    },
    {
      "anonymous": false,
      "inputs": [
        {
          "indexed": true,
          "internalType": "uint256",
          "name": "transactionId",
          "type": "uint256"
        },
        {
          "indexed": false,
          "internalType": "bool",
          "name": "sellerWins",
          "type": "bool"
        }
      ],
      "name": "DisputeResolved",
      "type": "event"
    },
    {
      "anonymous": false,
      "inputs": [
        {
          "indexed": false,
          "internalType": "uint256",
          "name": "amount",
          "type": "uint256"
        }
      ],
      "name": "EmergencyWithdraw",
      "type": "event"
    },
    {
      "anonymous": false,
      "inputs": [
        {
          "indexed": false,
          "internalType": "uint64",
          "name": "version",
          "type": "uint64"
        }
      ],
      "name": "Initialized",
      "type": "event"
    },
    {
      "anonymous": false,
      "inputs": [
        {
          "indexed": true,
          "internalType": "address",
          "name": "previousOwner",
          "type": "address"
        },
        {
          "indexed": true,
          "internalType": "address",
          "name": "newOwner",
          "type": "address"
        }
      ],
      "name": "OwnershipTransferred",
      "type": "event"
    },
    {
      "anonymous": false,
      "inputs": [
        {
          "indexed": false,
          "internalType": "address",
          "name": "account",
          "type": "address"
        }
      ],
      "name": "Paused",
      "type": "event"
    },
    {
      "anonymous": false,
      "inputs": [
        {
          "indexed": true,
          "internalType": "uint256",
          "name": "transactionId",
          "type": "uint256"
        },
        {
          "indexed": false,
          "internalType": "string",
          "name": "proofImage",
          "type": "string"
        }
      ],
      "name": "ProductDelivered",
      "type": "event"
    },
    {
      "anonymous": false,
      "inputs": [
        {
          "indexed": true,
          "internalType": "uint256",
          "name": "transactionId",
          "type": "uint256"
        }
      ],
      "name": "TransactionCompleted",
      "type": "event"
    },
    {
      "anonymous": false,
      "inputs": [
        {
          "indexed": true,
          "internalType": "uint256",
          "name": "transactionId",
          "type": "uint256"
        },
        {
          "indexed": false,
          "internalType": "address",
          "name": "buyer",
          "type": "address"
        },
        {
          "indexed": false,
          "internalType": "address",
          "name": "seller",
          "type": "address"
        }
      ],
      "name": "TransactionCreated",
      "type": "event"
    },
    {
      "anonymous": false,
      "inputs": [
        {
          "indexed": true,
          "internalType": "uint256",
          "name": "transactionId",
          "type": "uint256"
        }
      ],
      "name": "TransactionTimeout",
      "type": "event"
    },
    {
      "anonymous": false,
      "inputs": [
        {
          "indexed": false,
          "internalType": "address",
          "name": "account",
          "type": "address"
        }
      ],
      "name": "Unpaused",
      "type": "event"
    },
    {
      "anonymous": false,
      "inputs": [
        {
          "indexed": false,
          "internalType": "address",
          "name": "newImplementation",
          "type": "address"
        }
      ],
      "name": "UpgradeExecuted",
      "type": "event"
    },
    {
      "anonymous": false,
      "inputs": [
        {
          "indexed": true,
          "internalType": "address",
          "name": "implementation",
          "type": "address"
        }
      ],
      "name": "Upgraded",
      "type": "event"
    },
    {
      "anonymous": false,
      "inputs": [
        {
          "indexed": true,
          "internalType": "address",
          "name": "seller",
          "type": "address"
        },
        {
          "indexed": false,
          "internalType": "uint256",
          "name": "amount",
          "type": "uint256"
        }
      ],
      "name": "WithdrawSuccessful",
      "type": "event"
    },
    {
      "inputs": [],
      "name": "DISPUTE_TIMEOUT",
      "outputs": [
        {
          "internalType": "uint256",
          "name": "",
          "type": "uint256"
        }
      ],
      "stateMutability": "view",
      "type": "function"
    },
    {
      "inputs": [],
      "name": "MAX_STRING_LENGTH",
      "outputs": [
        {
          "internalType": "uint256",
          "name": "",
          "type": "uint256"
        }
      ],
      "stateMutability": "view",
      "type": "function"
    },
    {
      "inputs": [],
      "name": "MAX_TRANSACTION_AMOUNT",
      "outputs": [
        {
          "internalType": "uint256",
          "name": "",
          "type": "uint256"
        }
      ],
      "stateMutability": "view",
      "type": "function"
    },
    {
      "inputs": [],
      "name": "MAX_TRANSACTION_DURATION",
      "outputs": [
        {
          "internalType": "uint256",
          "name": "",
          "type": "uint256"
        }
      ],
      "stateMutability": "view",
      "type": "function"
    },
    {
      "inputs": [],
      "name": "UPGRADE_INTERFACE_VERSION",
      "outputs": [
        {
          "internalType": "string",
          "name": "",
          "type": "string"
        }
      ],
      "stateMutability": "view",
      "type": "function"
    },
    {
      "inputs": [
        {
          "internalType": "uint256",
          "name": "_transactionId",
          "type": "uint256"
        }
      ],
      "name": "autoResolveDispute",
      "outputs": [],
      "stateMutability": "nonpayable",
      "type": "function"
    },
    {
      "inputs": [
        {
          "internalType": "address",
          "name": "",
          "type": "address"
        }
      ],
      "name": "balances",
      "outputs": [
        {
          "internalType": "uint256",
          "name": "",
          "type": "uint256"
        }
      ],
      "stateMutability": "view",
      "type": "function"
    },
    {
      "inputs": [
        {
          "internalType": "uint256",
          "name": "_transactionId",
          "type": "uint256"
        }
      ],
      "name": "confirmReceive",
      "outputs": [],
      "stateMutability": "nonpayable",
      "type": "function"
    },
    {
      "inputs": [
        {
          "internalType": "address",
          "name": "_seller",
          "type": "address"
        },
        {
          "internalType": "string",
          "name": "_productKey",
          "type": "string"
        }
      ],
      "name": "createTransaction",
      "outputs": [],
      "stateMutability": "payable",
      "type": "function"
    },
    {
      "inputs": [],
      "name": "defaultMediator",
      "outputs": [
        {
          "internalType": "address",
          "name": "",
          "type": "address"
        }
      ],
      "stateMutability": "view",
      "type": "function"
    },
    {
      "inputs": [
        {
          "internalType": "uint256",
          "name": "_transactionId",
          "type": "uint256"
        },
        {
          "internalType": "string",
          "name": "_proofImage",
          "type": "string"
        }
      ],
      "name": "deliverProduct",
      "outputs": [],
      "stateMutability": "nonpayable",
      "type": "function"
    },
    {
      "inputs": [],
      "name": "emergencyWithdraw",
      "outputs": [],
      "stateMutability": "nonpayable",
      "type": "function"
    },
    {
      "inputs": [
        {
          "internalType": "uint256",
          "name": "_transactionId",
          "type": "uint256"
        }
      ],
      "name": "getTransactionStatus",
      "outputs": [
        {
          "internalType": "enum IDigitalEscrow.Status",
          "name": "",
          "type": "uint8"
        }
      ],
      "stateMutability": "view",
      "type": "function"
    },
    {
      "inputs": [
        {
          "internalType": "address",
          "name": "platformOwner",
          "type": "address"
        }
      ],
      "name": "initialize",
      "outputs": [],
      "stateMutability": "nonpayable",
      "type": "function"
    },
    {
      "inputs": [
        {
          "internalType": "uint256",
          "name": "_transactionId",
          "type": "uint256"
        }
      ],
      "name": "initiateDispute",
      "outputs": [],
      "stateMutability": "nonpayable",
      "type": "function"
    },
    {
      "inputs": [],
      "name": "owner",
      "outputs": [
        {
          "internalType": "address",
          "name": "",
          "type": "address"
        }
      ],
      "stateMutability": "view",
      "type": "function"
    },
    {
      "inputs": [],
      "name": "paused",
      "outputs": [
        {
          "internalType": "bool",
          "name": "",
          "type": "bool"
        }
      ],
      "stateMutability": "view",
      "type": "function"
    },
    {
      "inputs": [],
      "name": "proxiableUUID",
      "outputs": [
        {
          "internalType": "bytes32",
          "name": "",
          "type": "bytes32"
        }
      ],
      "stateMutability": "view",
      "type": "function"
    },
    {
      "inputs": [],
      "name": "renounceOwnership",
      "outputs": [],
      "stateMutability": "nonpayable",
      "type": "function"
    },
    {
      "inputs": [
        {
          "internalType": "uint256",
          "name": "_transactionId",
          "type": "uint256"
        },
        {
          "internalType": "bool",
          "name": "_sellerWins",
          "type": "bool"
        }
      ],
      "name": "resolveDispute",
      "outputs": [],
      "stateMutability": "nonpayable",
      "type": "function"
    },
    {
      "inputs": [
        {
          "internalType": "address",
          "name": "_newMediator",
          "type": "address"
        }
      ],
      "name": "setDefaultMediator",
      "outputs": [],
      "stateMutability": "nonpayable",
      "type": "function"
    },
    {
      "inputs": [],
      "name": "togglePause",
      "outputs": [],
      "stateMutability": "nonpayable",
      "type": "function"
    },
    {
      "inputs": [],
      "name": "transactionCount",
      "outputs": [
        {
          "internalType": "uint256",
          "name": "",
          "type": "uint256"
        }
      ],
      "stateMutability": "view",
      "type": "function"
    },
    {
      "inputs": [
        {
          "internalType": "uint256",
          "name": "",
          "type": "uint256"
        }
      ],
      "name": "transactions",
      "outputs": [
        {
          "internalType": "address",
          "name": "buyer",
          "type": "address"
        },
        {
          "internalType": "address",
          "name": "seller",
          "type": "address"
        },
        {
          "internalType": "uint256",
          "name": "amount",
          "type": "uint256"
        },
        {
          "internalType": "string",
          "name": "productKey",
          "type": "string"
        },
        {
          "internalType": "string",
          "name": "proofImage",
          "type": "string"
        },
        {
          "internalType": "enum IDigitalEscrow.Status",
          "name": "status",
          "type": "uint8"
        },
        {
          "internalType": "uint256",
          "name": "createdAt",
          "type": "uint256"
        },
        {
          "internalType": "uint256",
          "name": "disputeInitiatedAt",
          "type": "uint256"
        }
      ],
      "stateMutability": "view",
      "type": "function"
    },
    {
      "inputs": [
        {
          "internalType": "address",
          "name": "newOwner",
          "type": "address"
        }
      ],
      "name": "transferOwnership",
      "outputs": [],
      "stateMutability": "nonpayable",
      "type": "function"
    },
    {
      "inputs": [
        {
          "internalType": "address",
          "name": "newImplementation",
          "type": "address"
        },
        {
          "internalType": "bytes",
          "name": "data",
          "type": "bytes"
        }
      ],
      "name": "upgradeToAndCall",
      "outputs": [],
      "stateMutability": "payable",
      "type": "function"
    },
    {
      "inputs": [],
      "name": "withdraw",
      "outputs": [],
      "stateMutability": "nonpayable",
      "type": "function"
    }
  ],
  "bytecode": "0x60a06040523073ffffffffffffffffffffffffffffffffffffffff1660809073ffffffffffffffffffffffffffffffffffffffff1681525034801561004357600080fd5b5061005261005760201b60201c565b6101c1565b600061006761015b60201b60201c565b90508060000160089054906101000a900460ff16156100b2576040517ff92ee8a900000000000000000000000000000000000000000000000000000000815260040160405180910390fd5b67ffffffffffffffff80168160000160009054906101000a900467ffffffffffffffff1667ffffffffffffffff16146101585767ffffffffffffffff8160000160006101000a81548167ffffffffffffffff021916908367ffffffffffffffff1602179055507fc7f505b2f371ae2175ee4913f4499e1f2633a7b5936321eed1cdaeb6115181d267ffffffffffffffff60405161014f91906101a6565b60405180910390a15b50565b60007ff0c57e16840df040f15088dc2f81fe391c3923bec73e23a9662efc9c229c6a00905090565b600067ffffffffffffffff82169050919050565b6101a081610183565b82525050565b60006020820190506101bb6000830184610197565b92915050565b6080516136fc6101ea60003960008181611eed01528181611f42015261213401526136fc6000f3fe60806040526004361061019c5760003560e01c806371635c03116100ec578063b77bf6001161008a578063db2e21bc11610064578063db2e21bc14610562578063eb2fadf014610579578063f2fde38b14610595578063f896c48d146105be5761019c565b8063b77bf600146104f7578063c4ae316814610522578063c4d66de8146105395761019c565b80639ace38c2116100c65780639ace38c214610436578063a3d8a3311461047a578063a9d39b59146104a3578063ad3cb1cc146104cc5761019c565b806371635c03146103b9578063802f022c146103e25780638da5cb5b1461040b5761019c565b806351527c80116101595780635c975abb116101335780635c975abb1461031157806360b193931461033c5780636bbc379d14610365578063715018a6146103a25761019c565b806351527c801461029057806352d1902d146102bb57806358d0b147146102e65761019c565b806327e235e3146101a157806334b25ee2146101de57806334ccc5ea146102075780633ccfd60b14610232578063486265c6146102495780634f1ef28614610274575b600080fd5b3480156101ad57600080fd5b506101c860048036038101906101c39190612b1b565b6105e9565b6040516101d59190612b61565b60405180910390f35b3480156101ea57600080fd5b5061020560048036038101906102009190612be0565b610601565b005b34801561021357600080fd5b5061021c6108fc565b6040516102299190612b61565b60405180910390f35b34801561023e57600080fd5b50610247610902565b005b34801561025557600080fd5b5061025e610ad5565b60405161026b9190612b61565b60405180910390f35b61028e60048036038101906102899190612d66565b610adc565b005b34801561029c57600080fd5b506102a5610afb565b6040516102b29190612dd1565b60405180910390f35b3480156102c757600080fd5b506102d0610b21565b6040516102dd9190612e05565b60405180910390f35b3480156102f257600080fd5b506102fb610b54565b6040516103089190612b61565b60405180910390f35b34801561031d57600080fd5b50610326610b5b565b6040516103339190612e2f565b60405180910390f35b34801561034857600080fd5b50610363600480360381019061035e9190612b1b565b610b80565b005b34801561037157600080fd5b5061038c60048036038101906103879190612e4a565b610beb565b6040516103999190612eee565b60405180910390f35b3480156103ae57600080fd5b506103b7610c17565b005b3480156103c557600080fd5b506103e060048036038101906103db9190612e4a565b610c2b565b005b3480156103ee57600080fd5b5061040960048036038101906104049190612e4a565b610ecb565b005b34801561041757600080fd5b506104206110b8565b60405161042d9190612dd1565b60405180910390f35b34801561044257600080fd5b5061045d60048036038101906104589190612e4a565b6110f0565b604051610471989796959493929190612f88565b60405180910390f35b34801561048657600080fd5b506104a1600480360381019061049c91906130b5565b611295565b005b3480156104af57600080fd5b506104ca60048036038101906104c59190612e4a565b611518565b005b3480156104d857600080fd5b506104e1611798565b6040516104ee9190613111565b60405180910390f35b34801561050357600080fd5b5061050c6117d1565b6040516105199190612b61565b60405180910390f35b34801561052e57600080fd5b506105376117d7565b005b34801561054557600080fd5b50610560600480360381019061055b9190612b1b565b611804565b005b34801561056e57600080fd5b506105776119ec565b005b610593600480360381019061058e9190613133565b611b41565b005b3480156105a157600080fd5b506105bc60048036038101906105b79190612b1b565b611da8565b005b3480156105ca57600080fd5b506105d3611e2e565b6040516105e09190612b61565b60405180910390f35b60026020528060005260406000206000915090505481565b610609611e3a565b610611611e7b565b6000806000848152602001908152602001600020905061062f6110b8565b73ffffffffffffffffffffffffffffffffffffffff163373ffffffffffffffffffffffffffffffffffffffff161461069e57336040517fdccef9640000000000000000000000000000000000000000000000000000000081526004016106959190612dd1565b60405180910390fd5b6004808111156106b1576106b0612e77565b5b8160050160009054906101000a900460ff1660048111156106d5576106d4612e77565b5b1461072b578060050160009054906101000a900460ff1660046040517ff924664d00000000000000000000000000000000000000000000000000000000815260040161072292919061318f565b60405180910390fd5b62093a80816007015461073e91906131e7565b42111561078257426040517f6634e9230000000000000000000000000000000000000000000000000000000081526004016107799190612b61565b60405180910390fd5b811561080b578060020154600260008360010160009054906101000a900473ffffffffffffffffffffffffffffffffffffffff1673ffffffffffffffffffffffffffffffffffffffff1673ffffffffffffffffffffffffffffffffffffffff16815260200190815260200160002060008282546107ff91906131e7565b9250508190555061088a565b8060020154600260008360000160009054906101000a900473ffffffffffffffffffffffffffffffffffffffff1673ffffffffffffffffffffffffffffffffffffffff1673ffffffffffffffffffffffffffffffffffffffff168152602001908152602001600020600082825461088291906131e7565b925050819055505b60038160050160006101000a81548160ff021916908360048111156108b2576108b1612e77565b5b0217905550827f5a87909bff68caaaaf0b3fd9c74eeccc928832f879315e5c6fb7a73612f26c0c836040516108e79190612e2f565b60405180910390a2506108f8611ed2565b5050565b6103e881565b61090a611e7b565b6000600260003373ffffffffffffffffffffffffffffffffffffffff1673ffffffffffffffffffffffffffffffffffffffff1681526020019081526020016000205490506000810361099357806040517f3728b83d00000000000000000000000000000000000000000000000000000000815260040161098a9190612b61565b60405180910390fd5b6000600260003373ffffffffffffffffffffffffffffffffffffffff1673ffffffffffffffffffffffffffffffffffffffff1681526020019081526020016000208190555060003373ffffffffffffffffffffffffffffffffffffffff16826040516109fe9061324c565b60006040518083038185875af1925050503d8060008114610a3b576040519150601f19603f3d011682016040523d82523d6000602084013e610a40565b606091505b5050905080610a7b576040517f90b8ec1800000000000000000000000000000000000000000000000000000000815260040160405180910390fd5b3373ffffffffffffffffffffffffffffffffffffffff167f84e742a3ea03623687a5febaa797636d728230721d4b3d1405d19fbbc16298d983604051610ac19190612b61565b60405180910390a25050610ad3611ed2565b565b62093a8081565b610ae4611eeb565b610aed82611fd1565b610af78282612013565b5050565b600360009054906101000a900473ffffffffffffffffffffffffffffffffffffffff1681565b6000610b2b612132565b7f360894a13ba1a3210667c828492db98dca3e2076cc3735a920a3ca505d382bbc60001b905090565b620d2f0081565b600080610b666121b9565b90508060000160009054906101000a900460ff1691505090565b610b886121e1565b610ba78173ffffffffffffffffffffffffffffffffffffffff16612268565b80600360006101000a81548173ffffffffffffffffffffffffffffffffffffffff021916908373ffffffffffffffffffffffffffffffffffffffff16021790555050565b600080600083815260200190815260200160002060050160009054906101000a900460ff169050919050565b610c1f6121e1565b610c2960006122dc565b565b610c33611e3a565b610c3b611e7b565b806000811480610c4c575060015481115b15610c8e57806040517f8057e763000000000000000000000000000000000000000000000000000000008152600401610c859190612b61565b60405180910390fd5b600080600084815260200190815260200160002090508060000160009054906101000a900473ffffffffffffffffffffffffffffffffffffffff1673ffffffffffffffffffffffffffffffffffffffff163373ffffffffffffffffffffffffffffffffffffffff1614610d3857336040517fdccef964000000000000000000000000000000000000000000000000000000008152600401610d2f9190612dd1565b60405180910390fd5b60026004811115610d4c57610d4b612e77565b5b8160050160009054906101000a900460ff166004811115610d7057610d6f612e77565b5b14610dc6578060050160009054906101000a900460ff1660026040517ff924664d000000000000000000000000000000000000000000000000000000008152600401610dbd92919061318f565b60405180910390fd5b620d2f008160060154610dd991906131e7565b421115610e1d57426040517f6634e923000000000000000000000000000000000000000000000000000000008152600401610e149190612b61565b60405180910390fd5b6000816007015414610e5b576040517f568303f700000000000000000000000000000000000000000000000000000000815260040160405180910390fd5b60048160050160006101000a81548160ff02191690836004811115610e8357610e82612e77565b5b0217905550428160070181905550827f116f6b179359db1a58a963fc783ee184e7844aba306a3c2ce02de3d7391d17c360405160405180910390a25050610ec8611ed2565b50565b610ed3611e3a565b610edb611e7b565b60008060008381526020019081526020016000209050600480811115610f0457610f03612e77565b5b8160050160009054906101000a900460ff166004811115610f2857610f27612e77565b5b14610f7e578060050160009054906101000a900460ff1660046040517ff924664d000000000000000000000000000000000000000000000000000000008152600401610f7592919061318f565b60405180910390fd5b62093a808160070154610f9191906131e7565b4211610fd457426040517f6634e923000000000000000000000000000000000000000000000000000000008152600401610fcb9190612b61565b60405180910390fd5b8060020154600260008360000160009054906101000a900473ffffffffffffffffffffffffffffffffffffffff1673ffffffffffffffffffffffffffffffffffffffff1673ffffffffffffffffffffffffffffffffffffffff168152602001908152602001600020600082825461104b91906131e7565b9250508190555060038160050160006101000a81548160ff0219169083600481111561107a57611079612e77565b5b0217905550817f517e18927ca8eb5b875cc905eba9e15e4bbab17d7bdf27e38584474e32d39e5c60405160405180910390a2506110b5611ed2565b50565b6000806110c36123b3565b90508060000160009054906101000a900473ffffffffffffffffffffffffffffffffffffffff1691505090565b60006020528060005260406000206000915090508060000160009054906101000a900473ffffffffffffffffffffffffffffffffffffffff16908060010160009054906101000a900473ffffffffffffffffffffffffffffffffffffffff169080600201549080600301805461116590613290565b80601f016020809104026020016040519081016040528092919081815260200182805461119190613290565b80156111de5780601f106111b3576101008083540402835291602001916111de565b820191906000526020600020905b8154815290600101906020018083116111c157829003601f168201915b5050505050908060040180546111f390613290565b80601f016020809104026020016040519081016040528092919081815260200182805461121f90613290565b801561126c5780601f106112415761010080835404028352916020019161126c565b820191906000526020600020905b81548152906001019060200180831161124f57829003601f168201915b5050505050908060050160009054906101000a900460ff16908060060154908060070154905088565b61129d611e3a565b6112a5611e7b565b8160008114806112b6575060015481115b156112f857806040517f8057e7630000000000000000000000000000000000000000000000000000000081526004016112ef9190612b61565b60405180910390fd5b600080600085815260200190815260200160002090508060010160009054906101000a900473ffffffffffffffffffffffffffffffffffffffff1673ffffffffffffffffffffffffffffffffffffffff163373ffffffffffffffffffffffffffffffffffffffff16146113a257336040517fdccef9640000000000000000000000000000000000000000000000000000000081526004016113999190612dd1565b60405180910390fd5b600160048111156113b6576113b5612e77565b5b8160050160009054906101000a900460ff1660048111156113da576113d9612e77565b5b14611430578060050160009054906101000a900460ff1660016040517ff924664d00000000000000000000000000000000000000000000000000000000815260040161142792919061318f565b60405180910390fd5b61143c836103e86123db565b620d2f00816006015461144f91906131e7565b42111561149357426040517f6634e92300000000000000000000000000000000000000000000000000000000815260040161148a9190612b61565b60405180910390fd5b828160040190816114a4919061346d565b5060028160050160006101000a81548160ff021916908360048111156114cd576114cc612e77565b5b0217905550837f3ff4db210fb7d49a081126b6eb87761bf02d1f21c7f9772500b47baf0b7560ba846040516115029190613111565b60405180910390a25050611514611ed2565b5050565b611520611e3a565b611528611e7b565b806000811480611539575060015481115b1561157b57806040517f8057e7630000000000000000000000000000000000000000000000000000000081526004016115729190612b61565b60405180910390fd5b600080600084815260200190815260200160002090508060000160009054906101000a900473ffffffffffffffffffffffffffffffffffffffff1673ffffffffffffffffffffffffffffffffffffffff163373ffffffffffffffffffffffffffffffffffffffff161461162557336040517fdccef96400000000000000000000000000000000000000000000000000000000815260040161161c9190612dd1565b60405180910390fd5b6002600481111561163957611638612e77565b5b8160050160009054906101000a900460ff16600481111561165d5761165c612e77565b5b146116b3578060050160009054906101000a900460ff1660026040517ff924664d0000000000000000000000000000000000000000000000000000000081526004016116aa92919061318f565b60405180910390fd5b60038160050160006101000a81548160ff021916908360048111156116db576116da612e77565b5b02179055508060020154600260008360010160009054906101000a900473ffffffffffffffffffffffffffffffffffffffff1673ffffffffffffffffffffffffffffffffffffffff1673ffffffffffffffffffffffffffffffffffffffff168152602001908152602001600020600082825461175791906131e7565b92505081905550827f161186077e0cdfa49fae16d54ce01ea091439dbf14243419593fa6c051c906c860405160405180910390a25050611795611ed2565b50565b6040518060400160405280600581526020017f352e302e3000000000000000000000000000000000000000000000000000000081525081565b60015481565b6117df6121e1565b6117e7610b5b565b156117f9576117f4612426565b611802565b611801612498565b5b565b600061180e61250a565b905060008160000160089054906101000a900460ff1615905060008260000160009054906101000a900467ffffffffffffffff1690506000808267ffffffffffffffff1614801561185c5750825b9050600060018367ffffffffffffffff16148015611891575060003073ffffffffffffffffffffffffffffffffffffffff163b145b90508115801561189f575080155b156118d6576040517ff92ee8a900000000000000000000000000000000000000000000000000000000815260040160405180910390fd5b60018560000160006101000a81548167ffffffffffffffff021916908367ffffffffffffffff16021790555083156119265760018560000160086101000a81548160ff0219169083151502179055505b61192f86612532565b611937612546565b61193f612550565b611947612562565b85600360006101000a81548173ffffffffffffffffffffffffffffffffffffffff021916908373ffffffffffffffffffffffffffffffffffffffff16021790555083156119e45760008560000160086101000a81548160ff0219169083151502179055507fc7f505b2f371ae2175ee4913f4499e1f2633a7b5936321eed1cdaeb6115181d260016040516119db919061358e565b60405180910390a15b505050505050565b6119f46121e1565b6119fc612574565b611a04611e7b565b600047905060008103611a4e57806040517f3728b83d000000000000000000000000000000000000000000000000000000008152600401611a459190612b61565b60405180910390fd5b60008190506000611a5d6110b8565b73ffffffffffffffffffffffffffffffffffffffff1682604051611a809061324c565b60006040518083038185875af1925050503d8060008114611abd576040519150601f19603f3d011682016040523d82523d6000602084013e611ac2565b606091505b5050905080611afd576040517f90b8ec1800000000000000000000000000000000000000000000000000000000815260040160405180910390fd5b7f99d7f8b71cfb9126984f7a5eed3a40e64a8959e9b0e442221546fb04ec6a489c83604051611b2c9190612b61565b60405180910390a1505050611b3f611ed2565b565b611b49611e3a565b611b51611e7b565b611b6c678ac7230489e80000346125b490919063ffffffff16565b611b8b8273ffffffffffffffffffffffffffffffffffffffff16612268565b611ba06103e8826123db90919063ffffffff16565b60016000815480929190611bb3906135a9565b91905055506040518061010001604052803373ffffffffffffffffffffffffffffffffffffffff1681526020018373ffffffffffffffffffffffffffffffffffffffff16815260200134815260200182815260200160405180602001604052806000815250815260200160016004811115611c3157611c30612e77565b5b81526020014281526020016000815250600080600154815260200190815260200160002060008201518160000160006101000a81548173ffffffffffffffffffffffffffffffffffffffff021916908373ffffffffffffffffffffffffffffffffffffffff16021790555060208201518160010160006101000a81548173ffffffffffffffffffffffffffffffffffffffff021916908373ffffffffffffffffffffffffffffffffffffffff160217905550604082015181600201556060820151816003019081611d02919061346d565b506080820151816004019081611d18919061346d565b5060a08201518160050160006101000a81548160ff02191690836004811115611d4457611d43612e77565b5b021790555060c0820151816006015560e082015181600701559050506001547fc7d8edc3ff9466edccc362811619db5cbfe02b3e0fbfc4aa99349d7f107f78023384604051611d949291906135f1565b60405180910390a2611da4611ed2565b5050565b611db06121e1565b600073ffffffffffffffffffffffffffffffffffffffff168173ffffffffffffffffffffffffffffffffffffffff1603611e225760006040517f1e4fbdf7000000000000000000000000000000000000000000000000000000008152600401611e199190612dd1565b60405180910390fd5b611e2b816122dc565b50565b678ac7230489e8000081565b611e42610b5b565b15611e79576040517fd93c066500000000000000000000000000000000000000000000000000000000815260040160405180910390fd5b565b6000611e85612608565b90506002816000015403611ec5576040517f3ee5aeb500000000000000000000000000000000000000000000000000000000815260040160405180910390fd5b6002816000018190555050565b6000611edc612608565b90506001816000018190555050565b7f000000000000000000000000000000000000000000000000000000000000000073ffffffffffffffffffffffffffffffffffffffff163073ffffffffffffffffffffffffffffffffffffffff161480611f9857507f000000000000000000000000000000000000000000000000000000000000000073ffffffffffffffffffffffffffffffffffffffff16611f7f612630565b73ffffffffffffffffffffffffffffffffffffffff1614155b15611fcf576040517fe07c8dba00000000000000000000000000000000000000000000000000000000815260040160405180910390fd5b565b611fd96121e1565b7ffd5a9ae7c73c11fde86dd61704e937a04c99e7eef668050f685aabc5d8a6b2e4816040516120089190612dd1565b60405180910390a150565b8173ffffffffffffffffffffffffffffffffffffffff166352d1902d6040518163ffffffff1660e01b8152600401602060405180830381865afa92505050801561207b57506040513d601f19601f820116820180604052508101906120789190613646565b60015b6120bc57816040517f4c9c8ce30000000000000000000000000000000000000000000000000000000081526004016120b39190612dd1565b60405180910390fd5b7f360894a13ba1a3210667c828492db98dca3e2076cc3735a920a3ca505d382bbc60001b811461212357806040517faa1d49a400000000000000000000000000000000000000000000000000000000815260040161211a9190612e05565b60405180910390fd5b61212d8383612687565b505050565b7f000000000000000000000000000000000000000000000000000000000000000073ffffffffffffffffffffffffffffffffffffffff163073ffffffffffffffffffffffffffffffffffffffff16146121b7576040517fe07c8dba00000000000000000000000000000000000000000000000000000000815260040160405180910390fd5b565b60007fcd5ed15c6e187e77e9aee88184c21f4f2182ab5827cb3b7e07fbedcd63f03300905090565b6121e96126fa565b73ffffffffffffffffffffffffffffffffffffffff166122076110b8565b73ffffffffffffffffffffffffffffffffffffffff16146122665761222a6126fa565b6040517f118cdaa700000000000000000000000000000000000000000000000000000000815260040161225d9190612dd1565b60405180910390fd5b565b600073ffffffffffffffffffffffffffffffffffffffff168173ffffffffffffffffffffffffffffffffffffffff16036122d957806040517f8e4c8aa60000000000000000000000000000000000000000000000000000000081526004016122d09190612dd1565b60405180910390fd5b50565b60006122e66123b3565b905060008160000160009054906101000a900473ffffffffffffffffffffffffffffffffffffffff169050828260000160006101000a81548173ffffffffffffffffffffffffffffffffffffffff021916908373ffffffffffffffffffffffffffffffffffffffff1602179055508273ffffffffffffffffffffffffffffffffffffffff168173ffffffffffffffffffffffffffffffffffffffff167f8be0079c531659141344cd1fd0a4f28419497f9722a3daafe3b4186f6b6457e060405160405180910390a3505050565b60007f9016d09d72d40fdae2fd8ceac6b6234c7706214fd39c1cd1e609a0528c199300905090565b80825111156124225781516040517f30515bda0000000000000000000000000000000000000000000000000000000081526004016124199190612b61565b60405180910390fd5b5050565b61242e612574565b60006124386121b9565b905060008160000160006101000a81548160ff0219169083151502179055507f5db9ee0a495bf2e6ff9c91a7834c1ba4fdd244a5e8aa4e537bd38aeae4b073aa6124806126fa565b60405161248d9190612dd1565b60405180910390a150565b6124a0611e3a565b60006124aa6121b9565b905060018160000160006101000a81548160ff0219169083151502179055507f62e78cea01bee320cd4e420270b5ea74000d11b0c9f74754ebdbfc544b05a2586124f26126fa565b6040516124ff9190612dd1565b60405180910390a150565b60007ff0c57e16840df040f15088dc2f81fe391c3923bec73e23a9662efc9c229c6a00905090565b61253a612702565b61254381612742565b50565b61254e612702565b565b612558612702565b6125606127c8565b565b61256a612702565b6125726127fc565b565b61257c610b5b565b6125b2576040517f8dfc202b00000000000000000000000000000000000000000000000000000000815260040160405180910390fd5b565b60008214806125c257508082115b1561260457816040517f3728b83d0000000000000000000000000000000000000000000000000000000081526004016125fb9190612b61565b60405180910390fd5b5050565b60007f9b779b17422d0df92223018b32b4d1fa46e071723d6817e2486d003becc55f00905090565b600061265e7f360894a13ba1a3210667c828492db98dca3e2076cc3735a920a3ca505d382bbc60001b61281d565b60000160009054906101000a900473ffffffffffffffffffffffffffffffffffffffff16905090565b61269082612827565b8173ffffffffffffffffffffffffffffffffffffffff167fbc7cd75a20ee27fd9adebab32041f755214dbc6bffa90cc0225b39da2e5c2d3b60405160405180910390a26000815111156126ed576126e782826128f4565b506126f6565b6126f5612978565b5b5050565b600033905090565b61270a6129b5565b612740576040517fd7e6bcf800000000000000000000000000000000000000000000000000000000815260040160405180910390fd5b565b61274a612702565b600073ffffffffffffffffffffffffffffffffffffffff168173ffffffffffffffffffffffffffffffffffffffff16036127bc5760006040517f1e4fbdf70000000000000000000000000000000000000000000000000000000081526004016127b39190612dd1565b60405180910390fd5b6127c5816122dc565b50565b6127d0612702565b60006127da6121b9565b905060008160000160006101000a81548160ff02191690831515021790555050565b612804612702565b600061280e612608565b90506001816000018190555050565b6000819050919050565b60008173ffffffffffffffffffffffffffffffffffffffff163b0361288357806040517f4c9c8ce300000000000000000000000000000000000000000000000000000000815260040161287a9190612dd1565b60405180910390fd5b806128b07f360894a13ba1a3210667c828492db98dca3e2076cc3735a920a3ca505d382bbc60001b61281d565b60000160006101000a81548173ffffffffffffffffffffffffffffffffffffffff021916908373ffffffffffffffffffffffffffffffffffffffff16021790555050565b60606000808473ffffffffffffffffffffffffffffffffffffffff168460405161291e91906136af565b600060405180830381855af49150503d8060008114612959576040519150601f19603f3d011682016040523d82523d6000602084013e61295e565b606091505b509150915061296e8583836129d5565b9250505092915050565b60003411156129b3576040517fb398979f00000000000000000000000000000000000000000000000000000000815260040160405180910390fd5b565b60006129bf61250a565b60000160089054906101000a900460ff16905090565b6060826129ea576129e582612a64565b612a5c565b60008251148015612a12575060008473ffffffffffffffffffffffffffffffffffffffff163b145b15612a5457836040517f9996b315000000000000000000000000000000000000000000000000000000008152600401612a4b9190612dd1565b60405180910390fd5b819050612a5d565b5b9392505050565b600081511115612a775780518082602001fd5b6040517fd6bda27500000000000000000000000000000000000000000000000000000000815260040160405180910390fd5b6000604051905090565b600080fd5b600080fd5b600073ffffffffffffffffffffffffffffffffffffffff82169050919050565b6000612ae882612abd565b9050919050565b612af881612add565b8114612b0357600080fd5b50565b600081359050612b1581612aef565b92915050565b600060208284031215612b3157612b30612ab3565b5b6000612b3f84828501612b06565b91505092915050565b6000819050919050565b612b5b81612b48565b82525050565b6000602082019050612b766000830184612b52565b92915050565b612b8581612b48565b8114612b9057600080fd5b50565b600081359050612ba281612b7c565b92915050565b60008115159050919050565b612bbd81612ba8565b8114612bc857600080fd5b50565b600081359050612bda81612bb4565b92915050565b60008060408385031215612bf757612bf6612ab3565b5b6000612c0585828601612b93565b9250506020612c1685828601612bcb565b9150509250929050565b600080fd5b600080fd5b6000601f19601f8301169050919050565b7f4e487b7100000000000000000000000000000000000000000000000000000000600052604160045260246000fd5b612c7382612c2a565b810181811067ffffffffffffffff82111715612c9257612c91612c3b565b5b80604052505050565b6000612ca5612aa9565b9050612cb18282612c6a565b919050565b600067ffffffffffffffff821115612cd157612cd0612c3b565b5b612cda82612c2a565b9050602081019050919050565b82818337600083830152505050565b6000612d09612d0484612cb6565b612c9b565b905082815260208101848484011115612d2557612d24612c25565b5b612d30848285612ce7565b509392505050565b600082601f830112612d4d57612d4c612c20565b5b8135612d5d848260208601612cf6565b91505092915050565b60008060408385031215612d7d57612d7c612ab3565b5b6000612d8b85828601612b06565b925050602083013567ffffffffffffffff811115612dac57612dab612ab8565b5b612db885828601612d38565b9150509250929050565b612dcb81612add565b82525050565b6000602082019050612de66000830184612dc2565b92915050565b6000819050919050565b612dff81612dec565b82525050565b6000602082019050612e1a6000830184612df6565b92915050565b612e2981612ba8565b82525050565b6000602082019050612e446000830184612e20565b92915050565b600060208284031215612e6057612e5f612ab3565b5b6000612e6e84828501612b93565b91505092915050565b7f4e487b7100000000000000000000000000000000000000000000000000000000600052602160045260246000fd5b60058110612eb757612eb6612e77565b5b50565b6000819050612ec882612ea6565b919050565b6000612ed882612eba565b9050919050565b612ee881612ecd565b82525050565b6000602082019050612f036000830184612edf565b92915050565b600081519050919050565b600082825260208201905092915050565b60005b83811015612f43578082015181840152602081019050612f28565b60008484015250505050565b6000612f5a82612f09565b612f648185612f14565b9350612f74818560208601612f25565b612f7d81612c2a565b840191505092915050565b600061010082019050612f9e600083018b612dc2565b612fab602083018a612dc2565b612fb86040830189612b52565b8181036060830152612fca8188612f4f565b90508181036080830152612fde8187612f4f565b9050612fed60a0830186612edf565b612ffa60c0830185612b52565b61300760e0830184612b52565b9998505050505050505050565b600067ffffffffffffffff82111561302f5761302e612c3b565b5b61303882612c2a565b9050602081019050919050565b600061305861305384613014565b612c9b565b90508281526020810184848401111561307457613073612c25565b5b61307f848285612ce7565b509392505050565b600082601f83011261309c5761309b612c20565b5b81356130ac848260208601613045565b91505092915050565b600080604083850312156130cc576130cb612ab3565b5b60006130da85828601612b93565b925050602083013567ffffffffffffffff8111156130fb576130fa612ab8565b5b61310785828601613087565b9150509250929050565b6000602082019050818103600083015261312b8184612f4f565b905092915050565b6000806040838503121561314a57613149612ab3565b5b600061315885828601612b06565b925050602083013567ffffffffffffffff81111561317957613178612ab8565b5b61318585828601613087565b9150509250929050565b60006040820190506131a46000830185612edf565b6131b16020830184612edf565b9392505050565b7f4e487b7100000000000000000000000000000000000000000000000000000000600052601160045260246000fd5b60006131f282612b48565b91506131fd83612b48565b9250828201905080821115613215576132146131b8565b5b92915050565b600081905092915050565b50565b600061323660008361321b565b915061324182613226565b600082019050919050565b600061325782613229565b9150819050919050565b7f4e487b7100000000000000000000000000000000000000000000000000000000600052602260045260246000fd5b600060028204905060018216806132a857607f821691505b6020821081036132bb576132ba613261565b5b50919050565b60008190508160005260206000209050919050565b60006020601f8301049050919050565b600082821b905092915050565b6000600883026133237fffffffffffffffffffffffffffffffffffffffffffffffffffffffffffffffff826132e6565b61332d86836132e6565b95508019841693508086168417925050509392505050565b6000819050919050565b600061336a61336561336084612b48565b613345565b612b48565b9050919050565b6000819050919050565b6133848361334f565b61339861339082613371565b8484546132f3565b825550505050565b600090565b6133ad6133a0565b6133b881848461337b565b505050565b5b818110156133dc576133d16000826133a5565b6001810190506133be565b5050565b601f821115613421576133f2816132c1565b6133fb846132d6565b8101602085101561340a578190505b61341e613416856132d6565b8301826133bd565b50505b505050565b600082821c905092915050565b600061344460001984600802613426565b1980831691505092915050565b600061345d8383613433565b9150826002028217905092915050565b61347682612f09565b67ffffffffffffffff81111561348f5761348e612c3b565b5b6134998254613290565b6134a48282856133e0565b600060209050601f8311600181146134d757600084156134c5578287015190505b6134cf8582613451565b865550613537565b601f1984166134e5866132c1565b60005b8281101561350d578489015182556001820191506020850194506020810190506134e8565b8683101561352a5784890151613526601f891682613433565b8355505b6001600288020188555050505b505050505050565b6000819050919050565b600067ffffffffffffffff82169050919050565b600061357861357361356e8461353f565b613345565b613549565b9050919050565b6135888161355d565b82525050565b60006020820190506135a3600083018461357f565b92915050565b60006135b482612b48565b91507fffffffffffffffffffffffffffffffffffffffffffffffffffffffffffffffff82036135e6576135e56131b8565b5b600182019050919050565b60006040820190506136066000830185612dc2565b6136136020830184612dc2565b9392505050565b61362381612dec565b811461362e57600080fd5b50565b6000815190506136408161361a565b92915050565b60006020828403121561365c5761365b612ab3565b5b600061366a84828501613631565b91505092915050565b600081519050919050565b600061368982613673565b613693818561321b565b93506136a3818560208601612f25565b80840191505092915050565b60006136bb828461367e565b91508190509291505056fea2646970667358221220fd70cd0a469fe2ad50f87484a6661786685004136c5e5a684d1522239f2dff5d64736f6c634300081c0033",
  "linkReferences": {},
  "deployedLinkReferences": {}
}